S0130000626174746C6573686970732E737265636E
S113000071C0000079C0000077C0000075C0000016
S113001073C00000A2C000006FC000006DC00000EB
S11300206BC0000069C0000067C0000065C000002C
S113003063C0000061C000005FC000005DC000003C
S11300405BC0000059C0000057C0000055C000004C
S113005053C0000051C000004FC000004DC000005C
S11300604BC0000049C0000047C0000045C000006C
S113007043C0000041C000003FC000003DC000007C
S11300803BC0000039C0000037C0000035C000008C
S113009033C0000031C000002FC000002DC000009C
S11300A02BC0000029C0000027C0000025C00000AC
S11300B023C0000021C000001FC000001DC00000BC
S11300C01BC0000019C0000017C0000015C00000CC
S11300D013C0000011C000000FC000000DC00000DC
S11300E00BC0000011241FBECFEFD1E2DEBFCDBF95
S11300F000E00CBF83D0C8C183CFCF92EF920F939F
S1130100CF93DF93CCE3D0E0C12CE12C00E020EFCF
S113011030E044E050E060E070E0CE0128D1C05C03
S1130120DF4FCC3781E0D80779F7CBEFDFEFC12C75
S1130130E12C00E025E030E040E451E0BE0180E045
S113014090E015D1EC96C73281E0D80781F7DF91B2
S1130150CF910F91EF90CF9008951F920F920FB609
S11301600F9211240BB60F920F931F932F933F936B
S11301704F935F936F937F938F939F93AF93BF93AB
S1130180CF93DF93EF93FF9344D1C0E0D0E0082FE7
S113019010E02FEF87EA91E6215080409040E1F78C
S11301A000C0000098010C2E02C0359527950A94D2
S11301B0E2F720FF02C045D001C03FD02196C730EE
S11301C0D10539F7FF91EF91DF91CF91BF91AF91B5
S11301D09F918F917F916F915F914F913F912F915B
S11301E01F910F910F900BBE0F900FBE0F901F9099
S11301F0189582E080936A00EC9A0895FADF789467
S11302003CD07BDF1ED0FECF5F98A198A29800005F
S113021088B9A29AA19A5F9A8FE39FE10197F1F7B7
S113022000C0000008955F9AA198A298000092B9B6
S113023088B9A29AA19A5F98089588E290E0E4CFE1
S1130240089589E290E0E0CF089581E190E0DCCF69
S11302500895CF93C82F86E390E0D6DF8C2F90E0EB
S1130260E2DFCF910895CF93C82F8AE390E0CCDFEB
S11302708C2F90E0D8DFCF9108959FEF91B984B18E
S11302808F6084B983B3876083BB579A97B984B36B
S1130290876084BB5F9AA0982FEF89E698E121508C
S11302A080409040E1F700C00000A09A2FEF88E55D
S11302B096E0215080409040E1F700C00000C5DF87
S11302C0C0DF88E0C6DF85E0CECF08958CE290E001
S11302D09BCF0895282F30E0322F2227330F330F7E
S11302E0330F50E2659FC0011124842B822B932B82
S11302F09ACF08950F931F93CF93DF938617970791
S113030090F4603F710578F4EB018C018AE290E08F
S11303107BDF812F90E087DFC80185DF8D2F90E0A0
S113032082DFCE0180DFDF91CF911F910F9108957D
S11303300F931F93CF93DF938617970798F4603436
S113034021E0720778F4EB018C018BE290E05CDF32
S1130350812F90E068DFC80166DF8D2F90E063DFB6
S1130360CE0161DFDF91CF911F910F9108954F92DC
S11303705F926F927F928F929F92AF92BF92CF9231
S1130380EF920F933B015A014901BA01615071097F
S1130390680F791FCDDFB40161507109660D771DB7
S11303A0C301A8DF93DF9401D5015FD06115710506
S11303B08105910599F02B013C01812C912C54016C
S11303C04C2D6E2D802F86DF8FEF881A980AA80A8D
S11303D0B80A84149504A604B70491F780E090E069
S11303E013DF0F91EF90CF90BF90AF909F908F90BD
S11303F07F906F905F904F9008951816190644F4FB
S113040020E030E000002F5F3F4F82179307D1F7C1
S11304100895FF920F931F93CF93DF937398C7E0D0
S1130420D0E084B384BB84E090E0E7DF2197C9F790
S113043085E090E0E2DF80E090E02EB125FB00272C
S113044000F910E09801082E02C0220F331F0A940D
S1130450E2F7F22A01968730910579F78F2DDF9123
S1130460CF911F910F91FF900895A29FB001B39F68
S1130470C001A39F700D811D1124911DB29F700DA9
S10F0480811D1124911D0895F894FFCFF4
S9030000FC
