S0130000626174746C6573686970732E737265636E
S113000071C0000079C0000077C0000075C0000016
S113001073C0000071C000006FC000006DC000001C
S11300206BC0000069C0000067C0000065C000002C
S113003063C0000061C000005FC000005DC000003C
S11300405BC0000059C0000057C0000055C000004C
S113005053C0000051C000004FC000004DC000005C
S11300604BC0000049C0000047C0000045C000006C
S113007043C0000041C000003FC000003DC000007C
S11300803BC0000039C0000037C0000035C000008C
S113009033C0000031C000002FC000002DC000009C
S11300A02BC0000029C0000027C0000025C00000AC
S11300B023C0000021C000001FC000001DC00000BC
S11300C01BC0000019C0000017C0000015C00000CC
S11300D013C0000011C000000FC000000DC00000DC
S11300E00BC0000011241FBECFEFD1E2DEBFCDBF95
S11300F000E00CBF32D039C183CFCF92EF920F937F
S1130100CF93DF93CCE3D0E0C12CE12C00E020EFCF
S113011030E044E050E060E070E0CE01D1D0C05C5B
S1130120DF4FCC3781E0D80779F7CBEFDFEFC12C75
S1130130E12C00E025E030E040E451E0BE0180E045
S113014090E0BED0EC96C73281E0D80781F7DF910A
S1130150CF910F91EF90CF90089538D0CEDF1AD081
S1130160FECF5F98A198A298000088B9A29AA19A9C
S11301705F9A8FE39FE10197F1F700C000000895B3
S11301805F9AA198A298000092B988B9A29AA19AFC
S11301905F98089589E290E0E4CF089581E190E0CA
S11301A0E0CF0895CF93C82F86E390E0DADF8C2F59
S11301B090E0E6DFCF910895CF93C82F8AE390E0D3
S11301C0D0DF8C2F90E0DCDFCF9108959FEF91B9C1
S11301D084B18F6084B983B3876083BB579A97B91E
S11301E084B3876084BB5F9AA0982FEF89E698E177
S11301F0215080409040E1F700C00000A09A2FEF0A
S113020088E596E0215080409040E1F700C000006E
S1130210C5DFC0DF88E0C6DF85E0CECF08958CE27D
S113022090E09FCF0895282F30E0322F2227330FFC
S1130230330F330F50E2659FC0011124842B822BAE
S1130240932B9ECF08950F931F93CF93DF9386171D
S1130250970790F4603F710578F4EB018C018AE212
S113026090E07FDF812F90E08BDFC80189DF8D2F45
S113027090E086DFCE0184DFDF91CF911F910F9153
S113028008950F931F93CF93DF938617970798F4DE
S1130290603421E0720778F4EB018C018BE290E08A
S11302A060DF812F90E06CDFC8016ADF8D2F90E062
S11302B067DFCE0165DFDF91CF911F910F91089524
S11302C04F925F926F927F928F929F92AF92BF9262
S11302D0CF92EF920F933B015A014901BA01615049
S11302E07109680F791FCDDFB40161507109660D82
S11302F0771DC301A8DF93DF9401D50127D06115D1
S113030071058105910599F02B013C01812C912CFB
S113031054014C2D6E2D802F86DF8FEF881A980A9A
S1130320A80AB80A84149504A604B70491F780E0D7
S113033090E017DF0F91EF90CF90BF90AF909F9018
S11303408F907F906F905F904F900895A29FB0011F
S1130350B39FC001A39F700D811D1124911DB29FF5
S1110360700D811D1124911D0895F894FFCF96
S9030000FC
