S0130000626174746C6573686970732E737265636E
S113000071C0000079C0000077C0000075C0000016
S113001073C00000ACC000006FC000006DC00000E1
S11300206BC0000069C0000067C0000065C000002C
S113003063C0000061C000005FC000005DC000003C
S11300405BC0000059C0000057C0000055C000004C
S113005053C0000051C000004FC000004DC000005C
S11300604BC0000049C0000047C0000045C000006C
S113007043C0000041C000003FC000003DC000007C
S11300803BC0000039C0000037C0000035C000008C
S113009033C0000031C000002FC000002DC000009C
S11300A02BC0000029C0000027C0000025C00000AC
S11300B023C0000021C000001FC000001DC00000BC
S11300C01BC0000019C0000017C0000015C00000CC
S11300D013C0000011C000000FC000000DC00000DC
S11300E00BC0000011241FBECFEFD1E2DEBFCDBF95
S11300F000E00CBF32D0F8C183CFCF92EF920F93C0
S1130100CF93DF93CCE3D0E0C12CE12C00E020EFCF
S113011030E044E050E060E070E0CE01FFD0C05C2D
S1130120DF4FCC3781E0D80779F7CBEFDFEFC12C75
S1130130E12C00E025E030E040E451E0BE0180E045
S113014090E0ECD0EC96C73281E0D80781F7DF91DC
S1130150CF910F91EF90CF9008956CD0CEDF4ED019
S113016082E080936A00EC9A789448D0FECF1F9284
S11301700F920FB60F9211240BB60F922F933F9349
S11301804F935F936F937F938F939F93AF93BF939B
S1130190EF93FF93EC982ED092D1EC9AFF91EF91CC
S11301A0BF91AF919F918F917F916F915F914F918B
S11301B03F912F910F900BBE0F900FBE0F901F9089
S11301C018955F98A198A298000088B9A29AA19A5C
S11301D05F9A8FE39FE10197F1F700C00000089553
S11301E05F9AA198A298000092B988B9A29AA19A9C
S11301F05F98089588E290E0E4CF089589E290E062
S1130200E0CF089581E190E0DCCF0895CF93C82F2B
S113021086E390E0D6DF8C2F90E0E2DFCF91089563
S1130220CF93C82F8AE390E0CCDF8C2F90E0D8DF07
S1130230CF9108959FEF91B984B18F6084B983B34E
S1130240876083BB579A97B96B9A8DB18F7C8DB9B0
S1130250E1E0F1E08081886080839D9A84B38760C7
S113026084BB5F9AA0982FEF89E698E121508040E3
S11302709040E1F700C00000A09A2FEF88E596E0D7
S1130280215080409040E1F700C00000BBDFB6DFA2
S113029088E0BCDF85E0C4CF08958CE290E091CF84
S11302A008950F931F93CF93DF938617970790F4C6
S11302B0603F710578F4EB018C018AE290E081DF04
S11302C0812F90E08DDFC8018BDF8D2F90E088DFD8
S11302D0CE0186DFDF91CF911F910F9108950F9387
S11302E01F93CF93DF938617970798F4603421E028
S11302F0720778F4EB018C018BE290E062DF812FCE
S113030090E06EDFC8016CDF8D2F90E069DFCE01D5
S113031067DFDF91CF911F910F9108958F929F9284
S1130320AF92BF92CF92DF92EF92FF920F931F93FF
S1130330CF93DF93EB015A014901BA01615071096E
S1130340680F791FCCDFB401615071096C0F7D1FF8
S1130350CE01A7DFA2DF9401D501B7D061157105E5
S113036081059105F9F010E09801322F2227330F0F
S1130370330F330F40E2E49E800111240C29022B39
S1130380132B4B015C01C12CD12C7601C80128DF51
S11303908FEFC81AD80AE80AF80AC814D904EA047C
S11303A0FB04A1F780E090E00CDFDF91CF911F9177
S11303B00F91FF90EF90DF90CF90BF90AF909F9000
S11303C08F9008951816190644F420E030E00000D8
S11303D02F5F3F4F82179307D1F70895EF92FF9253
S11303E00F931F93CF93DF938C01E2E0F1E08081C0
S11303F0877F8083739883E090E0E4DFE12CF12C25
S1130400C2E0D1E024B3C8010E2C02C0880F991FAA
S11304100A94E2F78078992796958795969587951B
S1130420822B84BB88818860888386E090E0CADF61
S11304308881877F88838FEFE81AF80A88E0E816B6
S1130440F10401F7DF91CF911F910F91FF90EF908D
S11304500895CF93DF93C2E0D1E0888188708883C8
S113046081E090E0AFDF8881877F8883DF91CF913F
S11304700895EF92FF920F931F93CF93DF9300E0C1
S113048010E080E090E0EC01002E02C0CC0FDD1FF4
S11304900A94E2F7DEDF8EB185FBEE24E0F8F12C5E
S11304A0C7018C2B9D2B0F5F1F4F0C30110559F783
S11304B0DF91CF911F910F91FF90EF90089588E8FD
S11304C090E08CDFC6DFD5CF0895A29FB001B39F23
S11304D0C001A39F700D811D1124911DB29F700D49
S10F04E0811D1124911D0895F894FFCF94
S9030000FC
