S0130000626174746C6573686970732E737265636E
S113000071C000008EC000008CC000008AC00000D7
S113001088C0000019C1000084C0000082C0000034
S113002080C000007EC000007CC000007AC00000D8
S113003078C0000076C0000074C0000072C00000E8
S113004070C000006EC000006CC000006AC00000F8
S113005068C0000066C0000064C0000062C0000008
S113006060C000005EC000005CC000005AC0000018
S113007058C0000056C0000054C0000052C0000028
S113008050C000004EC000004CC000004AC0000038
S113009048C0000046C0000044C0000042C0000048
S11300A040C000003EC000003CC000003AC0000058
S11300B038C0000036C0000034C0000032C0000068
S11300C030C000002EC000002CC000002AC0000078
S11300D028C0000026C0000024C0000022C0000088
S11300E020C0000011241FBECFEFD1E2DEBFCDBF80
S11300F000E00CBF15E0A0E0B2E0E0E3F7E000E0D0
S11301000BBF02C007900D92AC3DB107D9F725E0B3
S1130110ACEDB5E001C01D92AE3FB207E1F7DBD014
S113012005C36ECF2F923F924F925F926F927F9250
S11301308F929F92AF92BF92CF92DF92EF92FF92F3
S11301400F931F93CF93DF93CDB7DEB728970FB6E6
S1130150F894DEBF0FBECDBF3C015E834D833C836C
S11301602B83C901880F991F9C01220F331F220F73
S1130170331F220F331F1901281A390A7A82698220
S11301806F837887412C512C21C0E981FA818191B8
S1130190FA83E98341D08B809C806894AA24A4F8D4
S11301A0B12C6894CC24C4F8D12CED80FE800F814E
S11301B018852FE04FE16FE05AD1FFEF4F1A5F0A25
S11301C08F819885820D931D98878F83F301019009
S11301D00020E9F73197E619F7094E165F06A8F2F1
S11301E0F301808119D028960FB6F894DEBF0FBEB4
S11301F0CDBFDF91CF911F910F91FF90EF90DF90D2
S1130200CF90BF90AF909F908F907F906F905F90B2
S11302104F903F902F900895843069F0803271F0B0
S1130220883F79F0E82FF0E0EE0FFF1FE25CFE4F0D
S11302308081918108958CED95E008958CED95E091
S113024008958AE193E008951F920F920FB60F92DA
S113025011240BB60F922F933F934F935F936F9399
S11302607F938F939F93AF93BF93EF93FF93EC98F8
S11302708091FC059091FD05AC0142955295507F0B
S11302805427407F542702969093FD058093FC05E4
S1130290BA01605F7F4F21E030E08AED95E042DFF4
S11302A032D23CD2EC9AFF91EF91BF91AF919F91E2
S11302B08F917F916F915F914F913F912F910F900B
S11302C00BBE0F900FBE0F901F90189582E0809385
S11302D06A00EC9A08953AD0F9DF78941BD01AD0CA
S11302E0FECF5F98A198A298000088B9A29AA19A1B
S11302F05F9A8FE39FE10197F1F700C00000089532
S11303005F9AA198A298000092B988B9A29AA19A7A
S11303105F98089589E290E0E4CF089581E190E048
S1130320E0CF0895CF93C82F86E390E0DADF8C2FD7
S113033090E0E6DFCF910895CF93C82F8AE390E051
S1130340D0DF8C2F90E0DCDFCF9108959FEF91B93F
S113035084B18F6084B983B3876083BB8BEF8AB920
S113036097B96B9A8DB18F7C8DB9E1E0F1E0808112
S1130370886080839D9A84B3876084BB5F9AA098C9
S11303802FEF89E698E1215080409040E1F700C0CA
S11303900000A09A2FEF88E596E02150804090401D
S11303A0E1F700C00000BADFB5DF88E0BBDF85E01D
S11303B0C3CF08958CE290E094CF0895282F30E0C5
S11303C0322F2227330F330F330F50E2659FC001C2
S11303D01124842B822B932B93CF08950F931F9377
S11303E0CF93DF938617970790F4603F710578F4F5
S11303F0EB018C018AE290E074DF812F90E080DFD2
S1130400C8017EDF8D2F90E07BDFCE0179DFDF91A5
S1130410CF911F910F9108950F931F93CF93DF9363
S11304208617970798F4603421E0720778F4EB019B
S11304308C018BE290E055DF812F90E061DFC801F1
S11304405FDF8D2F90E05CDFCE015ADFDF91CF912B
S11304501F910F9108951816190644F420E030E016
S113046000002F5F3F4F82179307D1F708952F9213
S11304703F925F926F927F928F929F92AF92BF92C0
S1130480CF92DF92EF92FF920F931F93CF93DF935C
S113049000D000D0CDB7DEB71C01562E642E722ECC
S11304A0C8019C828B82C89CB001C99C700DD89CE9
S11304B0700D1124980121503109620F731FACDFB4
S11304C08B809C808A9CB0018B9C700D9A9C700DD3
S11304D01124C7010197680F791FC7017FDF6ADF05
S11304E03A8229829101205E3F4F3E832D830B8106
S11304F01C81E981FA81A08081802B813C81232B9E
S113050009F462C0212C312CB12C912C5AC0C501A4
S11305100C2C02C0880F991F0A94E2F788236CF010
S1130520E12CF12C472D662D852D48DF3FEFE31A92
S1130530F30AE016F106B1F70CC0E12CF12C40E00F
S113054060E080E03BDF8FEFE81AF80AE016F1067E
S1130550B1F79FEFC91AD90AE8E0CE16D104B9F66B
S1130560C12CD12CC4010C2C02C0880F991F0A94F1
S1130570E2F788236CF0E12CF12C472D662D852DB4
S11305801DDFFFEFEF1AFF0AE016F106B1F70CC00A
S1130590E12CF12C40E060E080E010DF2FEFE21A64
S11305A0F20AE016F106B1F73FEFC31AD30A88E066
S11305B0C816D104B9F69FEF291A390A2016310654
S11305C019F0C12CD12CA3CFE981FA813296FA8398
S11305D0E9832D813E812E173F0709F08ACF80E001
S11305E090E07FDE26960FB6F894DEBF0FBECDBF37
S11305F0DF91CF911F910F91FF90EF90DF90CF90FB
S1130600BF90AF909F908F907F906F905F903F903E
S11306102F900895EF92FF920F931F93CF93DF9340
S11306208C01E2E0F1E08081877F8083739883E02E
S113063090E011DFE12CF12CC2E0D1E024B3C80139
S11306400E2C02C0880F991F0A94E2F7807899272C
S11306509695879596958795822B84BB888188602B
S1130660888386E090E0F7DE8881877F888386E050
S113067090E0F1DE8FEFE81AF80A88E0E816F1045A
S1130680E9F6DF91CF911F910F91FF90EF900895BC
S1130690CF92DF92EF92FF920F931F93CF93DF934A
S11306A0E12CF12CC0E0D0E002E011E00E2C02C0FD
S11306B0CC0FDD1F0A94E2F7F80180818860808303
S11306C086E090E0C8DEF8018081886080838EB186
S11306D085FBCC24C0F8D12CCC29DD2985E090E021
S11306E0BADEFFEFEF1AFF0A8CE0E816F104F1F628
S11306F07398CE01DF91CF911F910F91FF90EF90EE
S1130700DF90CF90089580E990E084DF8FE39FE14C
S11307100197F1F700C00000BBCF089580ED90E091
S113072079DF88E090E097DEB3CF0895F894FFCFA7
S11307305A047A02BA021A047A05FA03DA03BA03EB
S1130740DA049A037A035A033A025A02BA049A045C
S1130750BA055A053A043A05FA049A029A05DA02E5
S11307601A05FA023A031A037A04000000001FFC77
S11307700800040002000100008000800100020063
S1130780040008001FFC000000000000000000003E
S11307901FFC10000C00030000C00030000C1FFC04
S11307A00000000000000000000000000000000045
S11307B000003FFC220422042204220423041CF827
S11307C00000000000000000000000000000000025
S11307D0080006000180006000100008001000609E
S11307E00180060008000000000000000000000076
S11307F00FF0100820042004200420042004200406
S113080000000000000000000000000000000000E4
S1130810300C0810042002400180018002400420B2
S11308200810300C00000000000000000000000070
S1130830200C201420242044208421042204240495
S11308402804300400000000000000000000000242
S11308501FFC200C4012402240C2430244024802C2
S113086030043FF840000000000000000002000CCB
S1130870003000C001400640184020403FFE2042A6
S1130880204220422002000000000000000000007E
S1130890000000001FFC0004000400040004000425
S11308A00000000000000000000000000000000044
S11308B000001FFC01800140022004300410180CC9
S11308C00000000000000000000000000000000024
S11308D00000000008080804080408040808681058
S11308E06FE00000000000000000000000000000B5
S11308F000001FFC008000800080008000800080D9
S11309001FFC0000000000000000000000000000C8
S11309100FF01008200420042044204C10480070DC
S113092000000000000000000000000000000000C3
S1130930000000003FFC21002100210021002000D4
S11309402000000000000000000000000000000083
S113095000003FFC20042004200420042004200480
S113096010080FF00000000000000000000000006C
S11309700E00130821842084208420842084208471
S113098000CC007800000000000000000000000619
S1130990001C00E001200E2010200E20012000E0A9
S11309A0001C00060000000000000000000000061B
S11309B0001C00E00120EE20B020EE20012000E029
S11309C0001C000600000000000000000000000001
S11309D000001FFC11001100110011001100110092
S11309E00E000000000000000000000000000000F5
S11309F000000FF8180C30062002200220023006F6
S1130A00180C0FF8000000000000000000000000B7
S1130A10000000000000000037FC0000000000009F
S1130A2000000000000000000000000000000000C2
S1130A3000001FF000080004000400040004000487
S1130A4000081FF00000000000000000000000008B
S1130A500000100008000400020001FC0200040071
S1130A60080010000000000000000000000000006A
S1130A7010001000100010001FF8100010001000EB
S1130A801000100000000000000000000000000042
S1130A9000001FFC11801140114011300E0C0000A9
S1130AA00000000000000000000000000000000042
S1130AB000001FFC1084108410841084108410849F
S1130AC01004000000000000000000000E000300FD
S1130AD000E00038000E00F00F800F8000F0000EE0
S1130AE0003800E003000C000000000000000000DB
S1130AF000000FF8180C3006200220022012301ECD
S10F0B00180C0FFE00030000000074003D
S9030000FC
